:020000040800F2
:10000000008001206D2F00084702000855020008FB
:100010005B0200086102000867020008000000009F
:100020000000000000000000000000006D02000859
:100030007B02000800000000890200089702000807
:10004000B52F0008B52F0008B52F0008B52F000800
:10005000B52F0008B52F000859030008B52F000878
:10006000B52F0008B52F0008B52F0008B52F0008E0
:10007000B52F0008B52F0008B52F0008B52F0008D0
:10008000B52F0008B52F0008B52F0008FD020008A5
:10009000B52F0008B52F0008B52F0008B52F0008B0
:1000A00071100008B10F000889100008A10F0008A6
:1000B000C90F0008E10F0008F90F0008B52F00086C
:1000C000B52F0008B52F0008B52F0008CD0C00088B
:1000D000DB0C00088511000893110008A11100082D
:1000E000B52F0008B52F0008B52F0008A110000893
:1000F00059100008B9100008B52F0008B52F0008E6
:10010000B52F0008B52F000811100008E90C0008F1
:10011000AF110008BD1100082910000841100008A7
:10012000B52F0008B52F0008B52F0008B52F00081F
:10013000B52F0008B52F0008B52F0008F70C0008F0
:1001400000000000000000000000000000000000AF
:100150000B030008B52F0008B52F0008B52F0008C5
:10016000B52F0008B52F0008B52F0008B52F0008DF
:10017000CB110008D9110008E7110008B52F0008BD
:04018000B52F00088F
:1001840010B5054C237833B9044B13B10448AFF3CD
:1001940000800123237010BDE40100200000000052
:1001A400143C000808B5034B1BB103490348AFF3E3
:1001B400008008BD00000000E8010020143C000895
:1001C40080B500AF01F088FB0121002001F020FC84
:1001D40000BF012001F0B6FB0346012BF9D1012237
:1001E4003B21002001F0AAFC0121022001F010FCB7
:1001F40000BF192001F0A6FB0346012BF9D1002012
:1002040001F05AFC042001F083FC042001F06AFC94
:10021400012001F0EBFD022001F0DAFC00BF01F047
:10022400EDFC0346022BFAD1002001F0DFFD02F0C1
:1002340005FF00BF80BD80B500AFFFF7C1FF00BF61
:1002440080BD80B400AF00BFBD465DF8047B70473D
:1002540080B400AFFEE780B400AFFEE780B400AF27
:10026400FEE780B400AFFEE780B400AF00BFBD4638
:100274005DF8047B704780B400AF00BFBD465DF8F5
:10028400047B704780B400AF00BFBD465DF8047BBB
:10029400704780B400AF00BFBD465DF8047B704773
:1002A40080B582B000AF0346FB71FB79104A52F867
:1002B40023300621184601F029FA0346012B12D1F6
:1002C400FB790C4A52F82320FB7942F006020949D3
:1002D40041F82320FB79064A52F8233000220121F9
:1002E400184601F0F5F900BF0837BD4680BD00BFD0
:1002F400000000200002002080B500AF0020FFF7BE
:10030400CFFF00BF80BD80B500AF0120FFF7C8FF5D
:1003140000BF80BD80B500AF052002F08DFF012035
:1003240001F08CFD0121094801F0E2FF0346012B95
:100334000AD1074B1B78042B03D1054B01221A70F9
:1003440002E0034B04221A7000BF80BD0008014084
:100354002400002080B500AFFFF7DCFF00BF80BDA4
:1003640080B582B000AF01F05DFD78607B68074A1C
:10037400934207D000F014FC4FF47A71642000F02B
:1003840079F8F9E700BF0837BD4680BD4B03057017
:1003940080B588B000AF4FF40063FB824FF0FF33A9
:1003A4003B614FF0CC33FB600023FB7701F058FE38
:1003B4004FF00063BB611DE0BB691B68BB60BA689A
:1003C4003B699A4212D1F968B86901F077FE034695
:1003D400FB71BB691B68BB60FB79032B03D1BA6853
:1003E400FB689A4202D00123FB7707E0FB8ABA69D3
:1003F4001344BB61BB690E4A9342DDD901F04AFE46
:10040400FB7F002B0BD000F0CBFB08E064216420C1
:1004140000F030F84FF47A71642000F02BF8FB7F81
:10042400002BF3D100BF00BF2037BD4680BD00BF05
:10043400FEFF0F0880B584B000AF03460A46FB7187
:100444001346BB8000F0ACFB0023FB7308E0BA88C2
:10045400BB881146184600F00DF8FB7B0133FB7393
:10046400FA7BFB799A42F2D300BF00BF1037BD4636
:1004740080BD000080B582B000AF03460A46FB8011
:100484001346BB804FF40071094801F04CFFFB8810
:10049400184602F0D1FE4FF40071054801F052FFF6
:1004A400BB88184602F0C8FE00BF0837BD4680BDB1
:1004B400000C014080B500AF0121044801F06AFA44
:1004C4000121034801F066FA00BF80BD02001C0050
:1004D4000300180080B500AF1D4B1B8819461D4B47
:1004E4001B881A461C4802F023FA00211A4802F01D
:1004F4004BFA0021184802F032FA184802F0F9F9D0
:10050400164B06221A70154B00225A70134B002208
:10051400DA70124B01225A71104A06210E4802F079
:1005240049FA0F4B1B881A4606210B4802F044FB7C
:1005340001220621084802F08BFB0121064802F043
:1005440071FB0121044802F0BFF900BF80BD00BF68
:10055400260000200C0200200008004010020020A9
:100564002800002080B500AF00BF01210D4802F033
:10057400DEFB0346002BF8D001210A4802F0F0FB11
:10058400094B1A88094B1B8813449AB2064B1A80EC
:10059400054B1B881A460621024802F00DFB00BFDA
:1005A40080BD00BF00080040280000202A00002071
:1005B40080B584B000AF0346FB71FFF77BFF00F00A
:1005C400F6FA194B1B68194AA2FB03235B0D9BB275
:1005D400013B9AB2164B1A80FFF77CFF154B1A8821
:1005E400154B1B88B2FBF3F39BB21A46FB7902FB53
:1005F40003F3BB600023FB6004E0FFF7B3FFFB6879
:100604000133FB60FA68BB689A42F6D300210B48B9
:1006140002F05AF900220621084802F019FB00BF33
:100624001037BD4680BD00BF7C010020819F5E164F
:100634000C020020260000202A00002000080040B0
:1006440080B582B000AF7860154B1B6898680023B2
:100654000222002102F068FE0121124801F09AF9F9
:100664000121114801F096F901214FF4C01001F065
:1006740091F900F09CFA0D4800F068FA002300227A
:1006840079680B4802F07CFB0121094802F0FDFB6C
:100694000121074802F0E4FB00BF0837BD4680BDD6
:1006A4008001002014001C0003001800010400282D
:1006B4000050004080B500AF00210C4802F0D0FB90
:1006C40000210A4802F0E1FB00F056FA0021084834
:1006D40001F060F90021074801F05CF900214FF4B2
:1006E400C01001F057F900BF80BD00BF00500040AA
:1006F40014001C000300180080B584B000AF7860BB
:100704000B467B800023FB600FE000BF80210B4879
:1007140002F015FC0346002BF8D07B8819460748E5
:1007240002F0FCFBFB680133FB60FA687B689A42C9
:10073400EBD300BF00BF1037BD4680BD0050004062
:1007440080B586B000AF0346FB714FF49670FFF797
:1007540077FF04237B7500237B820023FB821BE04D
:10076400FB8A7A7D93FBF2F101FB02F29B1A7B7404
:100774007B7C184600F024FA03467B824FF47A739C
:10078400FB607B8A1946F868FFF7B6FFC82002F0C1
:1007940053FDFB8A0133FB82FA8A7B7DF97901FBE5
:1007A40003F39A42DCDBFFF785FF00BF1837BD4631
:1007B40080BD000080B582B000AF01211A4801F06D
:1007C400E9F80121194801F0E5F801214FF4C010BE
:1007D40001F0E0F800F0EBF90121154801F0E0FD2B
:1007E4003B46184601F022FF00233B7001237B7037
:1007F4000923BB700123FB7000233B7100237B7131
:100804000123BB710123FB713B4619464FF0402085
:1008140001F02EFF01214FF0402001F0FAFF00BF4C
:100824000837BD4680BD00BF10001C00030018003F
:1008340003041C2880B500AF00214FF0402001F0D4
:10084400E8FF0021084801F0ABFD0021074801F052
:10085400A1F80021064801F09DF800214FF4C010D2
:1008640001F098F800BF80BD03041C2810001C0090
:100874000300180080B584B000AF78600B467B801D
:100884000023FB6011E000BF02214FF0402002F082
:1008940002F80346002BF7D07B8819464FF040201E
:1008A40001F0EAFFFB680133FB60FA687B689A4257
:1008B400E9D300BF00BF1037BD4680BD80B586B008
:1008C40000AF0346FB71FFF775FF04237B7500231C
:1008D4007B820023FB821AE0FB8A7A7D93FBF2F190
:1008E40001FB02F29B1A7B747B7C5B00DBB2184633
:1008F40000F066F903467B8242F21073FB607B8A48
:100904001946F868FFF7B6FFFB8A0133FB82FA8ABF
:100914007B7DF97901FB03F39A42DDDBFFF78AFF64
:1009240000BF1837BD4680BD80B588B000AF012137
:100934001E4801F02FF801211D4801F02BF8012178
:100944004FF4C01001F026F800F031F901211948E4
:1009540001F026FD07F11803184600F0CAFC012334
:100964003B7600237B760123BB760123FB760023B1
:100974003B7700237B770023BB7707F118031946E5
:100984000D4800F0D5FC0A233B820223BB740723E5
:10099400FB7402233B7507F110031946064800F067
:1009A40027FC00BF2037BD4680BD00BF03001800F0
:1009B40019001C000204002C0064004080B500AF44
:1009C4000021094801F0ECFC0021084800F0E2FF96
:1009D4000021074800F0DEFF00214FF4C01000F0B2
:1009E400D9FF00BF80BD00BF0204002C0300180023
:1009F40019001C0080B588B000AF0346FB714FF4AA
:100A04008063BB600023FB6000233B7400237B7482
:100A14000823BB740023FB7708E0FB7F20333B44AF
:100A2400FA7903F80D2CFB7F0133FB77FB7F072B4F
:100A3400F3D907F108031946094800F022FD0346DB
:100A4400BB7700BFBB7F1946054800F0E0FD0346B5
:100A5400012BF7D100BF00BF2037BD4680BD00BFCA
:100A64000064004080B586B000AF0346FB71FFF719
:100A74005BFF44F62063FB600023FB720023FB75DD
:100A840028E000233B611EE0FA683B69D31A9A0010
:100A9400FB68B2FBF3F3DBB203F00303DBB21846EB
:100AA40000F08EF80346FB72FB7A1B015AB297F9E9
:100AB4000B3013435BB2FB72FB7A1846FFF79AFFC5
:100AC4003B6901333B613A69FB689A42DCD3FB7DA5
:100AD4000133FB75FA7DFB799A42D2D3FFF76EFF9F
:100AE40000BF1837BD4680BD80B584B000AF034653
:100AF400FB710121124800F04DFF07F1080318466D
:100B040001F0DCFB0123FB7300233B73FB79BB7314
:100B14004FF40073BB6004237B7307F10803194689
:100B2400084801F02FFB01224FF40071054801F041
:100B340018FC054AFB79137000BF1037BD4680BD11
:100B440003001800000C01402C00002080B582B086
:100B540000AF78607B68002B08D0064A7B6813607E
:100B6400044B1B680121184601F01AFC00BF08372A
:100B7400BD4680BD1802002080B500AF074B1B683E
:100B8400002B08D0054B1B680021184601F008FC17
:100B9400024B00221A6000BF80BD00BF1802002073
:100BA40080B500AF1020FFF79FFF00BF80BD80B568
:100BB40082B000AF0820FFF797FF0837BD4680BD1D
:100BC40080B483B000AF0346FB71FB791F2B05D8BB
:100BD400FB79012202FA03F3013B01E04FF0FF33FA
:100BE40018460C37BD465DF8047B704780B500AFEE
:100BF400FFF721FB02F000FBFFF7B2FBFFF7C8FB96
:100C040000F07EF80346002B0DD164216420FFF729
:100C140031FC64216420FFF72DFC4FF4FA61642059
:100C2400FFF728FCF1E70120FFF71CFF4FF4FA71EE
:100C34000220FFF7FFFB0120FFF740FE0120FFF732
:100C4400B7FC0120FFF77CFDDAE7000080B582B035
:100C540000AF0346FB71FB79184AD35C002B0CD11F
:100C6400FB79164A0121D154FB79154A52F82330F5
:100C74002A21184601F000FE1DE0FB79104A52F8C3
:100C840023300221184601F006FE0346012B12D13F
:100C9400FB790C4A52F82320FB7942F002020949FD
:100CA40041F82320FB79064A52F8233000228021A0
:100CB400184601F0C3FD0837BD4680BD2C02002054
:100CC400300000201C02002080B500AF0020FFF798
:100CD400BDFF00BF80BD80B500AF0120FFF7B6FFA8
:100CE40000BF80BD80B500AF0220FFF7AFFF00BF9B
:100CF40080BD80B500AF0320FFF7A8FF00BF80BD13
:100D040080B582B000AF0023FB7119E0104AFB7973
:100D14001370FB790F4A002142F82310FB7918461F
:100D240000F074F800BFFB790A4A52F82330012B13
:100D3400F9D1FB79184600F00BF9FB790133FB710B
:100D4400FB790D2BE2D9012318460837BD4680BD37
:100D5400340200203802002080B582B000AF034680
:100D6400FB71FB79274A52F823300121184601F020
:100D7400DEFF0346012B1AD1FB79234A52F82320C4
:100D8400FB7942F00102204941F82320FB791D4AF6
:100D940052F823300121184601F0E2FFFB79194A89
:100DA40052F8233000220121184601F09FFFFB79FD
:100DB400144A52F823301021184601F0B8FF0346B4
:100DC400012B1AD1FB79104A52F82320FB7942F007
:100DD40010020D4941F82320FB790A4A52F82330C6
:100DE4001021184601F0BCFFFB79064A52F8233063
:100DF40000221021184601F079FF00BF0837BD46D4
:100E040080BD00BF740000203802002080B586B089
:100E140000AF0346FB71FB79484A52F823300121A5
:100E2400184600F0B7FD464B1B68464AA2FB032355
:100E34005B0D9BB2013BFB82FB79434A52F82330A2
:100E4400FA8A4FF6FF71184601F072FDFB793E4AAB
:100E540052F823300021184601F096FDFB793A4AF6
:100E640052F823300021184601F079FDFB79364A07
:100E740052F823300121184601F0D4FEFB79324A9E
:100E840052F823300121184601F06AFF032001F0D3
:100E9400A1FBFB792D4AD35600220021184601F00C
:100EA40078FBFB79284A52F82330012201211846A5
:100EB40001F01CFFFB79002B34D0FB79042B31D8D3
:100EC40007F10C03184601F014FD06233B730023BD
:100ED4007B730023FB7301237B74FB791A4A52F85A
:100EE400233007F10C020621184601F063FDFB795B
:100EF400154A52F82330FF220621184601F05CFE01
:100F0400FB79114A52F8233001220621184601F0D8
:100F14009FFEFB790C4A52F8233001221021184617
:100F240001F0E4FEFB79084A52F823300121184607
:100F340001F0CAFC00BF1837BD4680BDBC000020CC
:100F44007C010020819F5E1674000020AC0000200C
:100F540080B582B000AF0346FB71FB790D4A52F8AD
:100F640023300021184601F0AFFCFB79094A52F8FE
:100F740023300021184601F055FEFB79064A52F849
:100F840023300021184600F005FD00BF0837BD4698
:100F940080BD00BF74000020BC00002080B400AFFE
:100FA40000BFBD465DF8047B7047000080B500AF0C
:100FB400034B1B781846FFF7CFFE00BF80BD00BF70
:100FC4003402002080B500AF034B1B781846FFF7AE
:100FD400C3FE00BF80BD00BF3402002080B500AF57
:100FE400034B1B781846FFF7B7FE00BF80BD00BF58
:100FF4003402002080B500AF034B1B781846FFF77E
:10100400ABFE00BF80BD00BF3402002080B500AF3E
:10101400034B1B781846FFF79FFE00BF80BD00BF3F
:101024003402002080B500AF034B1B781846FFF74D
:1010340093FE00BF80BD00BF3402002080B500AF26
:10104400034B1B781846FFF787FE00BF80BD00BF27
:101054003402002080B500AF034B1B781846FFF71D
:101064007BFE00BF80BD00BF3402002080B500AF0E
:10107400034B1B781846FFF76FFE00BF80BD00BF0F
:101084003402002080B500AF034B1B781846FFF7ED
:1010940063FE00BF80BD00BF3402002080B500AFF6
:1010A400034B1B781846FFF757FE00BF80BD00BFF7
:1010B4003402002080B500AF034B1B781846FFF7BD
:1010C4004BFE00BF80BD00BF3402002080B586B057
:1010D40000AF0346FB71FB79244A52F823307B614D
:1010E400FB799B00224A13443B61FB79214AD35C80
:1010F400002B14D14021786901F021FF0346FB73D2
:10110400FB791C4A0121D1542A21786901F006FF98
:101114004021786901F013FF0346FB7323E080212B
:10112400786901F00CFF0346002B0AD03B691B6869
:1011340043F080023B691A6000220F49786901F08C
:10114400B9FE4021786901F0FAFE0346002B0AD06B
:101154003B691B6843F040023B691A60002207495F
:10116400786901F0A7FE1837BD4680BDF400002061
:1011740080020020A002002007000C0006000C00E2
:1011840080B500AF0020FFF7A1FF00BF80BD80B590
:1011940000AF0120FFF79AFF00BF80BD80B500AF0C
:1011A4000220FFF793FF00BF80BD80B500AF03208E
:1011B400FFF78CFF00BF80BD80B500AF0420FFF7B0
:1011C40085FF00BF80BD80B500AF0520FFF77EFF1F
:1011D40000BF80BD80B500AF0620FFF777FF00BFDA
:1011E40080BD80B500AF0720FFF770FF00BF80BD52
:1011F40080B485B000AF786039600023FB730023AE
:10120400BB607A6813686FF3410313607A681368EC
:1012140043F00103136002E0BB680133BB607B68E9
:101224005B68C3F30003DBB2002B04D1BB684FF649
:10123400FF729342F0D17B685B68C3F30003DBB2B7
:10124400002B4DD03B681B88013B9BB2C3F30B03BF
:1012540099B27A68D36961F30B03D3613B689B78D5
:1012640003F00303D9B27A68D36961F31963D361D4
:101274003B68DB7803F00F03D9B27A68D36961F372
:101284001343D3613B681B7903F00703D9B27A682F
:10129400D36961F31653D3617A6813686FF300035B
:1012A40013600023BB6002E0BB680133BB607B6852
:1012B4005B68C3F30003DBB2002B04D0BB684FF6BA
:1012C400FF729342F0D17B685B68C3F30003DBB227
:1012D400002B02D00023FB7304E00123FB7301E025
:1012E4000023FB73FB7B18461437BD465DF8047B73
:1012F400704780B483B000AF78607B6800225A7076
:101304007B6800229A707B680022DA707B68002276
:101314001A717B6800225A717B6800229A717B687B
:1013240000221A7000BF0C37BD465DF8047B70477D
:1013340080B485B000AF786039600023FB7300236C
:10134400BB607A6813686FF3410313607A681368AB
:1013540043F00103136002E0BB680133BB607B68A8
:101364005B68C3F30003DBB2002B04D1BB684FF608
:10137400FF729342F0D17B685B68C3F30003DBB276
:10138400002B75D03B685B7803F00103D9B27A680F
:10139400136861F3C71313603B689B7803F0010380
:1013A400D9B27A68136861F3861313603B68DB78FB
:1013B40003F00103D9B27A68136861F3451313602B
:1013C4003B681B7903F00103D9B27A68136861F3AF
:1013D400041313603B685B7903F00103D9B27A68A4
:1013E400136861F3C30313603B689B7903F0010343
:1013F400D9B27A68136861F3820313603B681B787F
:1014040003F00103D9B27A68D36961F39E73D3619F
:101414003B681B785B08DBB203F00103D9B27A683E
:10142400D36961F3DF73D3617A6813686FF30003E0
:1014340013600023BB6002E0BB680133BB607B68C0
:101444005B68C3F30003DBB2002B04D0BB684FF628
:10145400FF729342F0D17B685B68C3F30003DBB295
:10146400002B02D00023FB7304E00123FB7301E093
:101474000023FB73FB7B18461437BD465DF8047BE1
:10148400704780B485B000AF786039600423FB7383
:101494007B689B68C3F38063DBB2002B02D000231C
:1014A400FB7315E07B689B68C3F3C063DBB2002B5E
:1014B40002D00123FB730BE07B689B68C3F30073CA
:1014C400DBB2002B02D00223FB7301E00423FB7385
:1014D400FB7B042B00F09480FB7B7A6818331B01A0
:1014E40013441A68FB7B02F00102796818331B016C
:1014F4000B441A603B681A7AFB7B02F00102D1B2FA
:101504007A6818331B011A44136861F38203136069
:101514003B681B7A002B02D0012B0FD01FE03B68E5
:101524001A68FB7BC2F30A0291B27A6818331B0172
:101534001A44136861F35F53136010E0FB7B7A680D
:1015440018331B01134419683B685B68DA00FB7BA2
:101554000A43796818331B010B441A6000BF3B68C7
:101564005A7AFB7B02F00102D1B27A6818331B016C
:101574001A44136861F3410313603B689A7AFB7B56
:1015840002F00F02D1B27A6818331B011A4453686F
:1015940061F3030353603B689B7B1A063B685B7BE8
:1015A4001B041A433B681B7B1B021A433B68DB7A10
:1015B4001946FB7B0A4379681B010B4403F5C4738A
:1015C4001A603B689B7C1A063B685B7C1B041A43CD
:1015D4003B681B7C1B021A433B68DB7B1946FB7B85
:1015E4000A4379681B010B4403F5C6731A60FB7B3D
:1015F4007A6818331B011A44136843F0010313601B
:10160400FB7B18461437BD465DF8047B704780B4F5
:1016140085B000AF78600B46FB700023FB73FB784A
:10162400022B34D0022B49DC002B02D0012B17D023
:1016340044E07B689B68C3F30003DBB2002B0CD04F
:101644007B689B68C3F34003DBB2002B02D0012309
:10165400FB7336E00023FB7333E00223FB7330E0BB
:101664007B689B68C3F30023DBB2002B0CD07B6840
:101674009B68C3F34023DBB2002B02D00123FB732E
:101684001FE00023FB731CE00223FB7319E07B685B
:101694009B68C3F30043DBB2002B0CD07B689B68D0
:1016A400C3F34043DBB2002B02D00123FB7308E0F9
:1016B4000023FB7305E00223FB7302E00023FB73AA
:1016C40000BFFB7B18461437BD465DF8047B7047AA
:1016D40080B485B000AFF860B9601346FB71FB7944
:1016E400002B06D0FB685A69BB681A43FB685A6131
:1016F40006E0FB685A69BB68DB431A40FB685A6121
:1017040000BF1437BD465DF8047B704780B485B0D4
:1017140000AF786039600023FB733B68013B102BFA
:1017240000F2D08001A252F823F000BF7517000820
:1017340083170008911700089F170008B9170008BD
:10174400C7170008D5170008E3170008F1170008A9
:101754000B18000819180008271800084118000879
:101764004F1800085D1800086B180008931800084B
:101774007B689B69C3F30003DBB2FB73A5E07B6862
:101784009B69C3F34003DBB2FB739EE07B689B69F8
:10179400C3F38003DBB2FB7397E07B689B69C3F3FD
:1017A4000213DBB2002B02D00123FB738DE0002374
:1017B400FB738AE07B685B68C3F38003DBB2FB7373
:1017C40083E07B689B68C3F30003DBB2FB737CE0BC
:1017D4007B689B68C3F30023DBB2FB7375E07B6813
:1017E4009B68C3F30043DBB2FB736EE07B68DB688A
:1017F400C3F30103DBB2002B02D00123FB7364E0CB
:101804000023FB7361E07B68DB68C3F3C003DBB2D6
:10181400FB735AE07B68DB68C3F30013DBB2FB7332
:1018240053E07B681B69C3F30103DBB2002B02D0D6
:101834000123FB7349E00023FB7346E07B681B69CB
:10184400C3F3C003DBB2FB733FE07B681B69C3F3E4
:101854000013DBB2FB7338E07B685B68C3F3C0033F
:10186400DBB2FB7331E07B685B68C3F34003DBB23C
:10187400002B06D17B685B68C3F30013DBB2002B3B
:1018840002D00123FB7320E00023FB731DE07B687F
:101894009B68C3F38063DBB2002B0DD17B689B682C
:1018A400C3F3C063DBB2002B06D17B689B68C3F330
:1018B4000073DBB2002B02D00123FB7305E000238D
:1018C400FB7302E00023FB7300BFFB7B1846143755
:1018D400BD465DF8047B704780B400AF184A1368B6
:1018E40043F00103136000BF154B1B68C3F34003AF
:1018F400DBB2012BF8D1124A53686FF30103536032
:1019040000BF0F4B5B68C3F38103DBB2002BF8D13C
:101914000B4B1B680A4A23F0867323F4803313604D
:10192400074B00225A60064B00221A63044B4FF403
:101934001F029A6000BFBD465DF8047B704700BF7C
:101944000010024080B485B000AF78600023FB73C0
:101954007B681B0C03F1804303F504331A687B682E
:1019640003F01F03012101FA03F31A407B6803F01B
:101974001F03012101FA03F39A4202D00023FB73EF
:1019840001E00123FB73FB7B18461437BD465DF869
:10199400047B704780B483B000AF78600B46FB7063
:1019A400FB78012B16D17B681B0C03F1804303F5F4
:1019B400043319687B6803F01F0301229A407B6893
:1019C4001B0C03F1804303F50433184641EA020378
:1019D400036017E07B681B0C03F1804303F50433B9
:1019E40019687B6803F01F03012202FA03F3DA4348
:1019F4007B681B0C03F1804303F50433184601EAAA
:101A04000203036000BF0C37BD465DF8047B7047DA
:101A140080B483B000AF03460A46FB711346BB7122
:101A2400FB79042B3ED801A252F823F0451A000892
:101A3400591A00086D1A0008811A0008951A00083E
:101A44001C4ABB7903F00103D9B2136861F30003A4
:101A5400136028E0174ABB7903F00103D9B2136875
:101A640061F3104313601EE0124ABB7903F00103D3
:101A7400D9B2136861F31863136014E00D4ABB799B
:101A840003F00103D9B2136A61F3000313620AE09D
:101A9400084ABB7903F00103D9B2536A61F3000326
:101AA400536200E000BF00BF0C37BD465DF8047B05
:101AB400704700BF0010024080B483B000AF0346FB
:101AC400FB71074AFB7903F00F03D9B2536861F342
:101AD4000713536000BF0C37BD465DF8047B7047A5
:101AE4000010024080B483B000AF0346FB71074A84
:101AF400FB7903F00703D9B2536861F30A235360F7
:101B040000BF0C37BD465DF8047B704700100240EF
:101B140080B483B000AF0346FB71074AFB7903F03E
:101B24000703D9B2536861F3CD23536000BF0C3768
:101B3400BD465DF8047B70470010024080B483B05A
:101B440000AF0346FB710B46BB7113467B71FB79F7
:101B5400002B05D11D4A53686FF31043536012E004
:101B64001A4A536843F480335360FB79012B05D13F
:101B7400164A53686FF35143536004E0134A5368A1
:101B840043F400335360114ABB7903F00F03D9B215
:101B9400536861F395435360BB791B110B4A03F0FF
:101BA4000303D9B2536861F35E735360074A7B79C8
:101BB40003F00103D9B2536861F3DF73536000BFCC
:101BC4000C37BD465DF8047B704700BF001002402F
:101BD40080B483B000AF0346FB71074AFB7903F07E
:101BE4000303D9B2536861F30103536000BF0C3798
:101BF400BD465DF8047B70470010024080B400AF1E
:101C0400044B5B68C3F38103DBB21846BD465DF841
:101C1400047B70470010024080B58AB000AF786042
:101C240000233B6200237B620023FB610023BB6132
:101C340000237B6100233B61FFF7E0FF0346FB7356
:101C4400FB7B022B20D0022B69DC002B02D0012B62
:101C540016D064E05D4B5B6DC3F34023DBB2002B15
:101C64000AD05A4B1B6BC3F34063DBB2002B03D087
:101C74007B68574A1A6056E07B68564A1A6052E0FD
:101C84007B68544A1A604EE0504B5B68C3F30043D0
:101C9400DBB2BB614D4B5B68C3F38343DBB27B6256
:101CA4004A4B5B68C3F34173DBB2FB61FB69002BF6
:101CB40002D17B6A0F2B06D1FB691A017B6A13449C
:101CC40001337B6202E07B6A02337B62BB69002BD7
:101CD40006D17B6A404A03FB02F27B681A6022E069
:101CE4003A4B5B68C3F34043DBB2002B10D0374B55
:101CF4005B6DC3F30133DBB23B623B6A0233354AAB
:101D0400B2FBF3F37A6A03FB02F27B681A600AE01F
:101D14007B6A304A03FB02F27B681A6003E07B684B
:101D24002C4A1A6000BF294B5B68C3F30313DBB270
:101D34007B612A4A7B6913441B783B617B681A6880
:101D44003B69DA407B685A60204B5B68C3F302232B
:101D5400DBB27B61224A7B6913441B783B617B685D
:101D64005A683B69DA407B68DA60184B5B68C3F3F6
:101D7400C223DBB27B611B4A7B6913441B783B6142
:101D84007B685A683B69DA407B689A600F4B5B68F2
:101D9400C3F30073DBB27B617B699B000B4A52681F
:101DA400C2F38132D2B213437B610F4A7B6913447D
:101DB4001B783B617B689A683B69B2FBF3F27B68F2
:101DC4001A6100BF2837BD4680BD00BF0010024025
:101DD400006CDC0200127A0000093D002C3C000873
:101DE4003C3C0008443C00084C3C000880B483B0F0
:101DF40000AF0346FB71FB79012B05D1084A536DF3
:101E040043F03003536504E0054A536D6FF3051343
:101E1400536500BF0C37BD465DF8047B704700BFB7
:101E24000010024080B400AF034B1B681846BD4647
:101E34005DF8047B704700BF002004E080B483B0E9
:101E440000AF78600B4B1A697B6813407A689A423A
:101E540006D1084A7B685361064A7B68536102E0F5
:101E6400044A7B68536100BF0C37BD465DF8047BB0
:101E7400704700BF0004014080B483B000AF032367
:101E8400FB71134BDB68C3F30003DBB2002B02D0FE
:101E94000023FB7115E00E4BDB68C3F38003DBB258
:101EA400002B02D00123FB710BE0094BDB68C3F369
:101EB4000013DBB2002B02D00223FB7101E00323E9
:101EC400FB71FB7918460C37BD465DF8047B7047FF
:101ED4000020024080B483B000AF0323FB71134B96
:101EE400DB6CC3F30003DBB2002B02D00023FB71D5
:101EF40015E00E4BDB6CC3F38003DBB2002B02D086
:101F04000123FB710BE0094BDB6CC3F30013DBB261
:101F1400002B02D00223FB7101E00323FB71FB7948
:101F240018460C37BD465DF8047B7047002002401C
:101F340080B483B000AF0323FB71154BD3F88C300E
:101F4400C3F30003DBB2002B02D00023FB7117E0C4
:101F54000F4BD3F88C30C3F38003DBB2002B02D0D9
:101F64000123FB710CE00A4BD3F88C30C3F300134C
:101F7400DBB2002B02D00223FB7101E00323FB71CF
:101F8400FB7918460C37BD465DF8047B704700BFEB
:101F94000020024080B584B000AF78600323FB7357
:101FA400FFF76AFF0346FB7306E0FFF765FF03468E
:101FB400FB737B68013B7B60FB7B002B02D17B685E
:101FC400002BF2D17B68002B01D10423FB73FB7B34
:101FD40018461037BD4680BD80B584B000AF786028
:101FE4000323FB73FFF776FF0346FB7306E0FFF75B
:101FF40071FF0346FB737B68013B7B60FB7B002B1B
:1020040002D17B68002BF2D17B68002B01D1042321
:10201400FB73FB7B18461037BD4680BD80B584B08A
:1020240000AF78600323FB73FFF782FF0346FB7363
:1020340006E0FFF77DFF0346FB737B68013B7B6093
:10204400FB7B002B02D17B68002BF2D17B68002B39
:1020540001D10423FB73FB7B18461037BD4680BDBA
:1020640080B400AF084B094A5A60074B084A5A60CB
:10207400054B064A5A64044B054A5A6400BFBD46E0
:102084005DF8047B704700BF0020024023016745D0
:10209400AB89EFCD80B400AF074A136943F08003E6
:1020A4001361054A136D43F08003136500BFBD46F9
:1020B4005DF8047B704700BF0020024080B584B007
:1020C40000AF786039600323FB737B68B3F1006F62
:1020D40017D37B68294A934213D8294A136943F0DA
:1020E400010313617B683A681A604FF48010FFF7AC
:1020F40051FF0346FB73224A13696FF30003136114
:1021040036E07B681D4A934217D97B68B3F1016FAF
:1021140013D21B4A136D43F0010313657B683A68BD
:102124001A604FF48010FFF757FF0346FB73144AFD
:10213400136D6FF3000313651AE07B68B3F1046F4A
:1021440016D30F4AD2F8903043F00103C2F890300E
:102154007B683A681A604FF48010FFF75FFF03460C
:10216400FB73074AD2F890306FF30003C2F8903043
:10217400FB7B18461037BD4680BD00BFFFFF070834
:102184000020024080B485B000AF786039603B68BD
:102194001B683B813B689B79032B02D100237B8125
:1021A40030E03B689B79002B15D13B685B799BB28F
:1021B40003F00F037B813B685B79182B03D13A89C9
:1021C4007B681A611EE03B685B79282B1AD13A8937
:1021D4007B685A6116E03B689B791BB203F00803E5
:1021E4001AB23B681B791BB203F004031BB21343FE
:1021F4001AB23B68DB791BB203F003031BB213432F
:102204001BB27B813B89DBB2002B25D00023FB6012
:102214001FE03A89FB6842FA03F303F00103002B41
:1022240014D07B681B68FA6892000F2101FA02F24D
:10223400D2431A407B681A607B681B687989FA6804
:10224400920001FA02F21A437B681A60FB680133B8
:10225400FB60FB68072BDCD93B89FF2B28D93B8922
:102264001B0A3B810023FB601FE03A89FB6842FAAA
:1022740003F303F00103002B14D07B685B68FA6856
:1022840092000F2101FA02F2D2431A407B685A608D
:102294007B685B687989FA68920001FA02F21A4352
:1022A4007B685A60FB680133FB60FB68072BDCD951
:1022B40000BF1437BD465DF8047B704780B483B01B
:1022C40000AF78607B684FF6FF721A607B6800226B
:1022D4009A717B6800221A717B6804225A717B68A8
:1022E4000122DA7100BF0C37BD465DF8047B7047EC
:1022F40080B485B000AF78600B467B800023FB730D
:102304007A8879887B689B680B409A4202D00023C4
:10231400FB7301E00123FB73FB7B18461437BD46B6
:102324005DF8047B704780B483B000AF78600B46DF
:102334007B807A887B681A6100BF0C37BD465DF8E4
:10234400047B704780B483B000AF78600B467B8019
:102354007A887B685A6100BF0C37BD465DF8047B00
:10236400704780B483B000AF78600B467B8013461F
:102374007B707B78002B06D07B68DA6B7B881A43F2
:102384007B68DA6306E07B68DB6B7A88D2431A40A9
:102394007B68DA6300BF0C37BD465DF8047B704789
:1023A40080B487B000AF78600B46FB707B681B0E6F
:1023B40003F1804303F580337B617B681B0CFB7462
:1023C4007B681B0ABB747B687B74BB7CC3F12002F3
:1023D400FB7CD31A4FF0FF3202FA03F3FB60BB7CA1
:1023E400C3F12002FB7CD31AFA6822FA03F3FB60E0
:1023F400FB7CFA6822FA03F3FB60FB7CFA6802FABE
:1024040003F3FB607B691968FB68DA437B690A4064
:102414001A60FB78002B09D07B691A68797CFB7CF5
:1024240001FA03F319467B690A431A6000BF1C379B
:10243400BD465DF8047B704780B485B000AF78601A
:102444007B6803F00703FB600C4BDB68BB60BA6876
:102454004FF6FF031340BB60FB681A02BB681343CB
:1024640043F0BF6343F40033BB60044ABB68D360EA
:1024740000BF1437BD465DF8047B704700ED00E0F3
:1024840080B400AF044BDB681B0A03F00703184653
:10249400BD465DF8047B704700ED00E080B483B076
:1024A40000AF0346FB7197F90730002B0BDBFB7978
:1024B40003F01F02074997F907305B09012000FA6E
:1024C40002F241F8232000BF0C37BD465DF8047BBF
:1024D400704700BF00E100E080B483B000AF034662
:1024E4003960FB7197F90730002B0ADB3B68DAB2DD
:1024F4000C4997F907301201D2B20B4483F8002338
:102504000AE03B68DAB20849FB7903F00F03043BA5
:102514001201D2B20B441A7600BF0C37BD465DF8E7
:10252400047B704700E100E000ED00E080B489B076
:1025340000AFF860B9607A60FB6803F00703FB61E1
:10254400FB69C3F10703042B28BF0423BB61FB69A8
:102554000433062B02D9FB69033B00E000237B61B3
:102564004FF0FF32BB6902FA03F3DA43BB681A4047
:102574007B699A404FF0FF317B6901FA03F3D94339
:102584007B680B40134318462437BD465DF8047B33
:10259400704780B586B000AF0346B9607A60FB73BC
:1025A40000237B61FFF76CFF03467A68B96818461D
:1025B400FFF7BCFF786197F90F3079691846FFF788
:1025C4008BFF97F90F301846FFF768FF00BF1837E5
:1025D400BD4680BD80B582B000AF0346FB71FB7978
:1025E4001846FFF729FF00BF0837BD4680BD00002D
:1025F40080B483B000AF0346FB71FB79042B06D192
:10260400094B1B68084A43F00403136005E0064BBA
:102614001B68054A23F00403136000BF0C37BD4652
:102624005DF8047B704700BF10E000E080B483B025
:1026340000AF78607B6800221A707B6800225A70B1
:102644007B6800229A707B680022DA707B68002223
:102654001A717B6800225A717B6800229A717B6828
:102664000122DA7100BF0C37BD465DF8047B704768
:1026740080B483B000AF786039607A68D3696FF34F
:10268400CB23D3613B681B78002B0FD17A68136886
:102694006FF3CF3313607A6813686FF38E3313606C
:1026A4007A6813686FF38A2313603AE03B681B78F7
:1026B400012B0FD17A6813686FF3CF3313607A68F4
:1026C40013686FF38E3313607A68136843F480637E
:1026D400136026E03B681B78022B0FD17A681368DD
:1026E40043F4004313607A6813686FF38E33136006
:1026F4007A6813686FF38A23136012E03B681B78CF
:10270400032B0ED17A68136843F4004313607A688C
:10271400136843F4804313607A6813686FF38A2361
:1027240013603B68DB7903F00103D9B27A6813685C
:1027340061F3492313603B685B78012B09D13B6843
:10274400DB79012B05D17A68136843F48073136035
:1027540004E07A6813686FF3082313603B685B78BE
:1027640003F00103D9B27A68136861F3820313603A
:102774003B689B78072B0FD97A68536843F48073BE
:1027840053603B689B7803F00703D9B27A681368F7
:1027940061F3C50313600EE07A6853686FF308238E
:1027A40053603B689B7803F00703D9B27A681368D7
:1027B40061F3C50313603B68DB7803F00103D9B20E
:1027C4007A68136861F3C71313603B681B7903F0DD
:1027D4000103D9B27A68136861F3CB2313603B68B1
:1027E4005B7903F00103D9B27A68136861F341039A
:1027F40013603B689B7903F00103D9B27A681368CC
:1028040061F30003136000BF0C37BD465DF8047B21
:10281400704780B483B000AF78600B46FB70FB78E0
:1028240003F00103D9B27A68136861F38613136065
:1028340000BF0C37BD465DF8047B704780B485B09B
:1028440000AFF860B9601346FB71FB79002B06D02A
:10285400FB685A68BB681A43FB685A6006E0FB6869
:102864005A68BB68DB431A40FB685A6000BF1437E0
:10287400BD465DF8047B704780B483B000AF7860D8
:102884000B467B807A887B68DA6000BF0C37BD46D4
:102894005DF8047B704780B485B000AF7860396020
:1028A4000023FB737B689A683B681340002B02D1BA
:1028B4000023FB7301E00123FB73FB7B18461437F1
:1028C400BD465DF8047B704780B483B000AF786088
:1028D4000B46FB70FB7803F00103D9B27A681368E6
:1028E40061F30003136000BF0C37BD465DF8047B41
:1028F400704780B483B000AF78607B6800221A70A0
:102904007B6800225A707B6800229A707B680022E0
:10291400DA707B6800221A717B6800225A717B6826
:1029240000229A7100BF0C37BD465DF8047B7047E6
:1029340080B485B000AFF860B9607A60FB68BA68AB
:10294400DA62FB687A689A62FA68536943F00103B1
:10295400536100BF1437BD465DF8047B704780B4F3
:1029640083B000AF78600B46FB70FB7803F0030381
:10297400D9B27A68136861F30923136000BF0C3776
:10298400BD465DF8047B704780B483B000AF7860C7
:102994000B46FB70FB7803F00703D9B27A6813681F
:1029A40061F30613136000BF0C37BD465DF8047B6A
:1029B4007047000080B489B000AFF8600B467A60BD
:1029C400FB720023FB830023BB8300237B83FB7AFE
:1029D4009BB208333B83FB7A9BB20933FB827B684F
:1029E4005B781A463B8B02FA03F3FB837B689B7884
:1029F4001A46FB8A02FA03F3BB83FB685B68FA8A14
:102A0400012101FA02F2D2431A40FB685A60FB68C2
:102A14005A68BB8B1A43FB685A60FB685B683A8B45
:102A2400012101FA02F2D2431A40FB685A60FB68A2
:102A34005A68FB8B1A43FB685A60FB7A7B837B8B57
:102A4400062B3DD801A252F823F000BF6D2A0008DE
:102A5400C52A0008832A0008C52A0008992A000804
:102A6400C52A0008AF2A00087B681B7803F0070317
:102A7400D9B2FA68936961F30613936121E07B6824
:102A84001B7803F00703D9B2FA68936961F30E3334
:102A9400936116E07B681B7803F00703D9B2FA68E8
:102AA400D36961F30613D3610BE07B681B7803F0F1
:102AB4000703D9B2FA68D36961F30E33D36100E036
:102AC40000BFFB7A9BB25B009BB201333B83FB7A72
:102AD4009BB25B009BB20333FB827B68DB781A46B4
:102AE4003B8B02FA03F3FB837B681B791A46FB8A50
:102AF40002FA03F3BB83FB681B6AFA8A012101FA19
:102B040002F2D2431A40FB681A62FB681A6ABB8B52
:102B14001A43FB681A62FB681B6A3A8B012101FAAB
:102B240002F2D2431A40FB681A62FB681A6AFB8BF2
:102B34001A43FB681A62FB7A9BB25B003B83FB7A05
:102B440001339BB25B00FB827B685B791A46FB7A9C
:102B54005B0002FA03F3FB837B689B791A46FB7ADA
:102B640001335B0002FA03F3BB83FB681B6AFA8A36
:102B7400012101FA02F2D2431A40FB681A62FB688F
:102B84001A6ABB8B1A43FB681A62FB681B6A3A8B8E
:102B9400012101FA02F2D2431A40FB681A62FB686F
:102BA4001A6AFB8B1A43FB681A6200BF2437BD46BE
:102BB4005DF8047B704700BF80B487B000AFF86055
:102BC4000B467A60FB72FB7AFB82FB8A062B21D8C8
:102BD40001A252F823F000BFF92B0008192C0008B9
:102BE400012C0008192C0008092C0008192C0008D5
:102BF400112C0008FB687A685A630CE0FB687A6859
:102C04009A6308E0FB687A68DA6304E0FB687A6830
:102C14001A6400E000BF00BF1C37BD465DF8047BAA
:102C2400704700BF80B483B000AF78600B46FB7080
:102C3400FB7803F00103D9B27A68136861F3C71310
:102C4400136000BF0C37BD465DF8047B704700007D
:102C540080B485B000AF78600B46FB701346BB7040
:102C6400FB78FB81FB89062B38D801A252F823F0AC
:102C7400912C0008E12C0008A52C0008E12C000888
:102C8400B92C0008E12C0008CD2C0008BB7803F017
:102C94000103D9B27A68936961F3C30393611EE0B7
:102CA400BB7803F00103D9B27A68936961F3CB234B
:102CB400936114E0BB7803F00103D9B27A68D36955
:102CC40061F3C303D3610AE0BB7803F00103D9B213
:102CD4007A68D36961F3CB23D36100E000BF00BFFE
:102CE4001437BD465DF8047B704700BF80B485B0DF
:102CF40000AFF860B9601346FB71FB79012B06D174
:102D0400FB68DA68BB681A43FB68DA6009E0FB79A0
:102D1400002B06D1FB68DA68BB68DB431A40FB680A
:102D2400DA6000BF1437BD465DF8047B704780B499
:102D340085B000AF786039600023FB737B681A6943
:102D44003B681340002B02D00123FB7301E00023F6
:102D5400FB73FB7B18461437BD465DF8047B704754
:102D640080B483B000AF786039603B68DA437B6835
:102D74001A6100BF0C37BD465DF8047B7047000044
:102D840080B58CB000AFF860B96011461A460B46A6
:102D9400FB711346BB7107F114031846FEF73CFFA1
:102DA400FB682A4A93420BD0FB68294A934207D016
:102DB400FB68284A934203D0FB68274A934202D116
:102DC400FB69FB6201E03B6AFB62FA6A13469B0003
:102DD40013445B001A46BB68B2FBF3F3BB62B96AE7
:102DE4001E4BA3FB0123DA0813469B0013445B002C
:102DF400CA1A042A06D8BB6A184AA2FB0323DB08B2
:102E0400BB6206E0BB6A154AA2FB0323DB0801335D
:102E1400BB62BB6A99B2FA68936861F30F0393606B
:102E2400FB7903F00103D9B2FA68D36861F30C3378
:102E3400D360BB7903F00303D9B2FA68136961F371
:102E44000D33136100BF3037BD4680BD00380140EB
:102E5400006001400064014000680140CDCCCCCC4E
:102E640080B483B000AF78600B46FB70FB7803F04E
:102E74000103D9B27A68D36861F34D33D36000BFDC
:102E84000C37BD465DF8047B704780B483B000AF57
:102E940078600B46FB70FB7803F00103D9B27A68C3
:102EA400D36861F3C303D36000BF0C37BD465DF83C
:102EB400047B704780B485B000AFF860B9601346F6
:102EC400FB71FB79012B11D1BB681A0CFB6813440D
:102ED4001A68BB6803F01F03012101FA03F3B96800
:102EE400080CF968014413430B6011E0BB681A0C29
:102EF400FB6813441A68BB6803F01F03012101FA3D
:102F040003F3DB43B968080CF968014413400B6010
:102F140000BF1437BD465DF8047B704780B483B0AE
:102F240000AF78600B467B807B88C3F308027B6824
:102F34005A6000BF0C37BD465DF8047B704780B40F
:102F440083B000AF786039607B681A683B681340CF
:102F5400002B01D0012300E0002318460C37BD46A6
:102F64005DF8047B70470000002103E00B4B5B58C5
:102F7400435004310A480B4B42189A42F6D30A4A8A
:102F840002E0002342F8043B084B9A42F9D300F0D4
:102F940011F800F09DF9FDF729FE7047D03C0008B8
:102FA40000000020E4010020E4010020CC02002005
:102FB400FEE7000080B400AF1E4BD3F888301D4AF2
:102FC40043F47003C2F888301B4A136843F00103CA
:102FD400136000BF184B1B68C3F34003DBB2012B23
:102FE400F8D1154A53686FF30103536000BF124BC5
:102FF4005B68C3F38103DBB2002BF8D10E4B1B6873
:103004000D4A23F0867323F4803313600A4B0022A5
:103014005A60094B00221A63074B4FF41F029A604F
:10302400044B4FF000629A6000BFBD465DF8047B1C
:10303400704700BF00ED00E00010024080B588B08A
:1030440000AF0023BB610023FB6100237B610023ED
:103054003B610023FB600023BB60FEF7CFFD03460A
:10306400FB71FB79022B20D0022B69DC002B02D0F0
:10307400012B16D064E03F4B5B6DC3F34023DBB2FE
:10308400002B0AD03B4B1B6BC3F34063DBB2002B1A
:1030940003D0394B394A1A6056E0374B384A1A6024
:1030A40052E0354B364A1A604EE0324B5B68C3F34C
:1030B4000043DBB23B612F4B5B68C3F38343DBB25A
:1030C400FB612C4B5B68C3F34173DBB27B617B69AF
:1030D400002B02D1FB690F2B06D17B691A01FB6916
:1030E40013440133FB6102E0FB690233FB613B697A
:1030F400002B06D1FB69234A02FB03F31E4A13602B
:1031040022E01C4B5B68C3F34043DBB2002B10D0BE
:10311400184B5B6DC3F30133DBB2BB61BB69023394
:10312400174AB2FBF3F3FA6902FB03F3124A136082
:103134000AE0FB69124A02FB03F30F4A136003E03F
:103144000D4B0F4A1A6000BF0A4B5B68C3F30313AD
:10315400DBB2FB600C4AFB6813441B78BB60064B74
:103164001A68BB6822FA03F3034A136000BF2037CE
:10317400BD4680BD001002407C010020006CDC02D2
:1031840000127A0000093D00543C000880B582B06A
:1031940000AF786000BF80210848FFF7D0FE0346E7
:1031A400002BF8D07B689BB219460448FFF7B6FEA3
:1031B4007B6818460837BD4680BD00BF0038014013
:1031C40080B586B000AFF860B9607A6000237B6197
:1031D40009E0BB685A1CBA601B781846FFF7D6FF93
:1031E4007B6901337B617A697B689A42F1DB7B6896
:1031F40018461837BD4680BD80B500AF0420FFF7E0
:10320400F7F9094B1B68094AA2FB03239B0C084AE4
:103214001360074B1B684FF47A7202FB03F3054AF1
:10322400136000BF80BD00BF7C01002083DE1B4310
:10323400B0020020B402002080B485B000AF034681
:10324400FB800023FB6035E0FB88322B0AD91E4B40
:103254001B681E4A322101FB03F35360FB88323B97
:10326400FB8008E0FB88184A1268184902FB03F344
:103274004B600023FB80154B00229A60134B1B68A4
:10328400124A43F001031360104B1B68FB60FB6898
:1032940003F00103002B04D0FB6803F48033002BFC
:1032A400F2D00A4B1B68094A23F001031360074B51
:1032B40000229A60FB88002BC6D100BF00BF1437E0
:1032C400BD465DF8047B7047B402002010E000E0C6
:1032D40070B50D4D0D4C641BA4100026A64209D1F7
:1032E4000B4D0C4C00F094FC641BA4100026A64269
:1032F40005D170BD55F8043B98470136EEE755F803
:10330400043B98470136F2E7C83C0008C83C000873
:10331400C83C0008CC3C000802440346934200D158
:10332400704703F8011BF9E72DE9F7431D465D4B90
:103334001F6804460E46904627B1BB6913B9384648
:1033440000F0D2F9584B9C4267D17C68B8F1020F67
:1033540006D0B8F1010F00F29F80002DC0F29C80CE
:10336400636EDB0705D4A389980502D4A06D00F031
:1033740059FA2146384600F023F9616B41B104F152
:103384004403994202D0384600F07CFA0023636378
:103394000023A3616360A389190603D52169384614
:1033A40000F070FAA38923F44A6323F00303B8F10D
:1033B400020FA3816CD001AB6A462146384600F067
:1033C40033FAA3891843A081002D30D1009D2846EB
:1033D40000F050FA0646002855D1DDF80090A945C2
:1033E4004AD14FF0FF350022A26004F14702226067
:1033F40022610122B4F90C306261626E43F002036F
:10340400D207A38105D413F4007F02D1A06D00F08C
:103414000AFA284603B0BDE8F083244B9C4201D14C
:10342400BC6893E7224B9C4208BFFC688EE7002EE1
:10343400CDD0BB6913B9384600F056F9B8F1010F85
:1034440008BFA389266004BF43F00103A381A289B6
:1034540012F00803C4E904651CD0D30741BF00235C
:103464006D42A360A56158BFA560656E15F00105A6
:1034740015D112F4007FC8E7484600F0FBF9064670
:103484000028AED04D46A38943F08003A381D0E742
:103494000025A8E7A360E8E74FF0FF35B9E700256A
:1034A400B7E700BF80010020883C0008A83C000862
:1034B400683C00088A892DE9F041054610070C464E
:1034C40058D44B68002B05DC0B6C002B02DC00206D
:1034D400BDE8F081E66A002EF9D0002312F4805290
:1034E4002F682B6032D0606DA3895A0705D56368B5
:1034F400C01A636B0BB1236CC01A00230246E66A40
:10350400216A2846B047431CA38906D129681D298E
:103514002CD82A4ACA40D60728D500226260D9048A
:103524002269226004D5421C01D12B6803B960656D
:10353400616B2F600029CAD004F14403994202D080
:10354400284600F09FF900206063C1E7216A012347
:103554002846B047411CC7D12B68002BC4D01D2B73
:1035640001D0162B01D12F60B1E7A38943F04003AA
:10357400A381ADE70F69002FA9D093070E6808BF98
:103584004B690F6018BF0023A6EB07088B60B8F1E6
:10359400000F9CDD216AA66A43463A462846B04796
:1035A400002806DCA38943F04003A3814FF0FF30D9
:1035B4008EE70744A8EB0008E9E700BF01004020BC
:1035C40038B50B6905460C4613B90025284638BDA5
:1035D40018B183690BB900F087F8144B9C421BD1D6
:1035E4006C68B4F90C30002BEFD0626ED00704D4B1
:1035F400990502D4A06D00F015F928462146FFF77D
:1036040059FF636EDA070546E0D4A3899B05DDD430
:10361400A06D00F008F9D9E7054B9C4201D1AC68D4
:10362400DFE7044B9C4208BFEC68DAE7883C0008FB
:10363400A83C0008683C0008002310B50446C0E913
:103644000033C0E90433836081814366C2818361AE
:10365400194608225C30FFF75FFE054B6362054B99
:10366400A362054BE362054B2462236310BD00BFD4
:10367400693A00088B3A0008C33A0008E73A0008A0
:10368400014900F0AFB800BFC535000870B5682225
:103694004D1E55430E4605F1740100F05FF90446D2
:1036A40040B10021C0E900160C30A06005F16802A9
:1036B400FFF732FE204670BD014800F0B3B800BFEA
:1036C400B9020020014800F0AEB800BFB9020020E2
:1036D400014800F0A7B800BFBA020020014800F07A
:1036E400A2B800BFBA02002010B50446FFF7F0FFED
:1036F400A3691BB1BDE81040FFF7F0BFC4E9123362
:103704002365134B134A1B68A262A34204BF01231F
:10371400A361204600F020F86060204600F01CF809
:10372400A060204600F018F80022E06004216068E0
:10373400FFF782FFA06801220921FFF77DFFE068FF
:1037440002221221FFF778FF0123A361D2E700BF11
:10375400643C000885360008F8B50746FFF7ACFF5F
:103764001E4B1E68B36913B93046FFF7BDFF4836D8
:10377400D6E90134013B03D533680BB33668F7E768
:10378400B4F90C50D5B9164BE36004F158006566E2
:1037940000F047F8FFF796FFC4E90155C4E9045562
:1037A4002560A5610822294604F15C00FFF7B4FDF9
:1037B400C4E90D55C4E912552046F8BD6834D9E76B
:1037C40004213846FFF762FF044630600028D5D153
:1037D400FFF778FF0C233B60EEE700BF643C000872
:1037E4000100FFFF2DE9F8430646884600F148042E
:1037F4000027D4E90195B9F1010905D52468002C05
:10380400F7D13846BDE8F883AB89012B07D9B5F960
:103814000E30013303D029463046C047074368358C
:10382400E9E770477047704770B50E46B1F90E105E
:10383400002996B014461D4608DAB6F90C30002269
:103844002A601A0610D44FF480630EE06A4600F032
:103854006FF90028F1DB019A02F47042A2F50053DB
:103864005A425A412A60EEE740230020236016B0F2
:1038740070BD0000024B0146186800F06FB800BF2D
:103884008001002037B5002944D051F8043C019050
:10389400002BA1F10404B8BFE41800F06DF91E4A2E
:1038A4000198136833B96360146003B0BDE8304015
:1038B40000F068B9A34208D9256861198B4201BF99
:1038C40019685B6849192160EDE71A465B680BB11A
:1038D400A342FAD911685518A5420BD12468214492
:1038E4005418A3421160E0D11C685B685360214402
:1038F4001160DAE702D90C230360D6E72568611961
:103904008B4204BF19685B68636004BF4919216076
:103914005460CAE703B030BDBC02002070B50E4E3F
:103924000C463168054611B900F08CF83060214628
:10393400284600F087F8431C0AD0C41C24F0030472
:10394400A04207D0211A284600F07CF8013001D1AA
:103954004FF0FF34204670BDC00200202DE9F04135
:10396400CD1C25F0030508350C2D38BF0C25002D82
:10397400074601DBA94205D90C233B6000263046EB
:10398400BDE8F0812E4E00F0F7F833681C4634BBD6
:1039940029463846FFF7C2FF431C04464DD134681C
:1039A4002646002E40D123683146384604EB0308EE
:1039B40000F048F880453AD1216803356D1A25F0A6
:1039C400030508350C2D38BF0C2529463846FFF76A
:1039D400A5FF01302BD023682B4423600EE022681E
:1039E400521B1ED40B2A16D96119A342256018BF95
:1039F4005960636808BF316062514B60384604F116
:103A04000B0600F0BFF826F00706231DF21AB6D005
:103A14009B1BA350B3E76268A3420CBF32605A6099
:103A2400ECE723466468B2E734467668B9E70C23CA
:103A34003B60384600F0A6F8A1E72560DEE700BF4A
:103A4400BC02002038B5064D0023044608462B600E
:103A540000F0D0F8431C02D12B6803B1236038BDB9
:103A6400C402002010B50C46B1F90E1000F090F815
:103A74000028ABBF636DA3891B1823F48053ACBF2C
:103A84006365A38110BD2DE9F0411F468B89DB05D9
:103A940005460C46164605D5B1F90E100223002240
:103AA40000F058F8A389B4F90E1023F48053A381CD
:103AB40032463B462846BDE8F04100F017B810B541
:103AC4000C46B1F90E1000F045F8431CA38915BF4C
:103AD400606523F4805343F48053A38118BFA3810A
:103AE40010BDB1F90E1000F013B8000038B5074D41
:103AF40004460846114600222A601A46FFF760FB76
:103B0400431C02D12B6803B1236038BDC4020020DA
:103B140038B5064D0023044608462B6000F04AF8E9
:103B2400431C02D12B6803B1236038BDC4020020BA
:103B340038B5074D00230446084611462B6000F0B3
:103B440041F8431C02D12B6803B1236038BD00BF88
:103B5400C402002038B5074D044608461146002229
:103B64002A601A4600F036F8431C02D12B6803B1D0
:103B7400236038BDC40200200148FFF753BE00BFD4
:103B8400B80200200148FFF74EBE00BFB802002073
:103B940038B5074D04460846114600222A601A46E5
:103BA40000F020F8431C02D12B6803B1236038BD18
:103BB400C4020020024B58221A604FF0FF307047B5
:103BC400C4020020024B58221A604FF0FF307047A5
:103BD400C4020020024B58221A604FF0FF30704795
:103BE400C4020020024B58221A604FF0FF30704785
:103BF400C4020020044A05491368002B08BF0B4681
:103C04001844106018467047C8020020D0020020F3
:103C1400F8B500BFF8BC08BC9E467047F8B500BFB5
:083C2400F8BC08BC9E46704785
:103C2C000000000000000000010203040607080960
:103C3C000000000001020304000000000102030464
:103C4C0002040608020C081000000000000000002E
:103C5C00010203040607080984010020000000008B
:103C6C000000000000000000000000000000000048
:103C7C000000000000000000000000000000000038
:103C8C000000000000000000000000000000000028
:103C9C000000000000000000000000000000000018
:103CAC000000000000000000000000000000000008
:0C3CBC00000000000000000000000000FC
:043CC800A901000846
:043CCC008501000866
:103CD00000640040006800401344000019001C000C
:103CE0001A001C0000080140000C014000100000F8
:103CF000002000000100FFFF01008F001000000005
:103D00000030014000380040003C004000400040CE
:103D10002324333F0C0018000E001C000F001C0071
:103D200010001C0000080140000C0140000C014084
:103D3000001801408000000000800000200000000A
:103D400040000000002C0140000000400004004042
:103D500000080040000C004000100040001400402B
:103D600000340140004C014000500140005401402B
:103D700000180040001C004000200040191C1D1EBF
:103D80003236372C18191A2B2C2D00000B00180076
:103D900000001C0001001C0002001C0003001C00AD
:103DA00004001C0005001C000D0018001300180082
:103DB000140018001500180006001C0007001C0065
:103DC00008001C000038014000440040004800404A
:103DD000004C004000500040006001400064014081
:103DE0000068014025262734354C4D4E0E00180042
:103DF00011001C0012001C0013001C0014001C0009
:103E000018001800190018001A00180000080140D6
:103E100000080140000C014000100140001001406A
:103E2000001001400018014000180140000200008D
:103E30000400000000040000000400000010000066
:103E400040000000000100000200000000127A00A3
:103E50008401002000000000883C0008A83C000805
:103E6000683C0008000000000000000000000000A6
:103E70000000000000000000000000000000000042
:103E80000000000000000000000000000000000032
:103E90000000000000000000000000000000000022
:103EA0000000000000000000000000000000000012
:043EB000000000000E
:0400000508002F6D53
:00000001FF
