:020000040800F2
:100000000080012039060008C5010008D30100085E
:10001000D9010008DF010008E50100080000000028
:10002000000000000000000000000000EB010008DC
:10003000F90100080000000007020008150200088E
:100040008106000881060008810600088106000874
:100050008106000881060008810600088106000864
:100060008106000881060008810600088106000854
:100070008106000881060008810600088106000844
:100080008106000881060008810600088106000834
:100090008106000881060008810600088106000824
:1000A0008106000881060008810600088106000814
:1000B0008106000881060008810600088106000804
:1000C00081060008810600088106000881060008F4
:1000D00081060008810600088106000881060008E4
:1000E00081060008810600088106000881060008D4
:1000F00081060008810600088106000881060008C4
:1001000081060008810600088106000881060008B3
:1001100081060008810600088106000881060008A3
:100120008106000881060008810600088106000893
:100130008106000881060008810600088106000883
:1001400000000000000000000000000000000000AF
:100150008106000881060008810600088106000863
:100160008106000881060008810600088106000853
:100170008106000881060008810600088106000843
:0401800081060008EC
:1001840010B5054C237833B9044B13B10448AFF3CD
:1001940000800123237010BD140000200000000023
:1001A4005407000808B5034B1BB103490348AFF3D8
:1001B400008008BD0000000018000020540700085B
:1001C40080B400AF00BFBD465DF8047B704780B4C7
:1001D40000AFFEE780B400AFFEE780B400AFFEE7F7
:1001E40080B400AFFEE780B400AF00BFBD465DF849
:1001F400047B704780B400AF00BFBD465DF8047B4C
:10020400704780B400AF00BFBD465DF8047B704703
:1002140080B400AF00BFBD465DF8047B70470000AA
:1002240080B582B000AF0121104800F0D2F83B46FF
:10023400184600F0A8F90123FB7100233B71102339
:10024400BB714FF6FF733B6004237B713B46194639
:10025400074800F0FCF801224FF6FF71044800F053
:10026400CAF900BF0837BD4680BD00BF05001800AD
:100274000014014080B582B000AF03460A46FB80FB
:1002840013467B717B79002B05D0FB881946064801
:1002940000F093F904E0FB881946034800F09CF948
:1002A40000BF0837BD4680BD0014014080B582B050
:1002B40000AF00237B6045E0264A7B6832F81330A8
:1002C4001946254800F079F900233B602CE0234BC4
:1002D4001A883B6803F00103002B14BF0123002399
:1002E400DBB219461046FFF7C5FF1C4B5A883B6822
:1002F40003F00203002B14BF01230023DBB21946D1
:100304001046FFF7B7FF154B9A883B6803F00403C8
:10031400002B14BF01230023DBB219461046FFF75C
:10032400A9FF3B6801333B603B68072BCFDD094ADB
:100334007B6832F813301946074800F04DF97B68A2
:1003440001337B607B68042BB6DD00BF00BF083738
:10035400BD4680BD00000020001401400C000020B8
:1003640080B500AFFFF75CFF0821164800F025F9BF
:100374000121144800F021F9FFF798FF01211148E9
:1003840000F02AF902210F4800F017F9FFF78EFF59
:1003940001210C4800F011F9FFF788FF01210948F9
:1003A40000F01AF90221074800F016F90421054863
:1003B40000F003F9FFF77AFF0421024800F00CF97A
:1003C40000BF80BD0014014080B500AFFFF7C8FF37
:1003D400FEE780B483B000AF78600B46FB70FB7817
:1003E400012B16D17B681B0C03F1804303F5043306
:1003F40019687B6803F01F0301229A407B681B0C79
:1004040003F1804303F50433184641EA0203036011
:1004140017E07B681B0C03F1804303F50433196870
:100424007B6803F01F03012202FA03F3DA437B68BB
:100434001B0C03F1804303F50433184601EA02035D
:10044400036000BF0C37BD465DF8047B704780B481
:1004540085B000AF786039603B681B683B813B68BE
:100464009B79032B02D100237B8130E03B689B798D
:10047400002B15D13B685B799BB203F00F037B81A2
:100484003B685B79182B03D13A897B681A611EE0BB
:100494003B685B79282B1AD13A897B685A6116E04C
:1004A4003B689B791BB203F008031AB23B681B79C3
:1004B4001BB203F004031BB213431AB23B68DB798B
:1004C4001BB203F003031BB213431BB27B813B89B2
:1004D400DBB2002B25D00023FB601FE03A89FB68C8
:1004E40042FA03F303F00103002B14D07B681B686A
:1004F400FA6892000F2101FA02F2D2431A407B6893
:100504001A607B681B687989FA68920001FA02F222
:100514001A437B681A60FB680133FB60FB68072B96
:10052400DCD93B89FF2B28D93B891B0A3B8100235B
:10053400FB601FE03A89FB6842FA03F303F001030E
:10054400002B14D07B685B68FA6892000F2101FAD3
:1005540002F2D2431A407B685A607B685B687989EF
:10056400FA68920001FA02F21A437B685A60FB6847
:100574000133FB60FB68072BDCD900BF1437BD4691
:100584005DF8047B704780B483B000AF78607B680B
:100594004FF6FF721A607B6800229A717B68002212
:1005A4001A717B6804225A717B680122DA7100BFD8
:1005B4000C37BD465DF8047B704780B483B000AF50
:1005C40078600B467B807A887B681A6100BF0C37A1
:1005D400BD465DF8047B704780B483B000AF78609B
:1005E4000B467B807A887B685A6100BF0C37BD4616
:1005F4005DF8047B704780B483B000AF78600B462D
:100604007B8013467B707B78002B06D07B68DA6B8B
:100614007B881A437B68DA6306E07B68DB6B7A8845
:10062400D2431A407B68DA6300BF0C37BD465DF8DD
:10063400047B7047002103E00B4B5B5843500431AB
:100644000A480B4B42189A42F6D30A4A02E00023A6
:1006540042F8043B084B9A42F9D300F011F800F039
:1006640053F8FFF7B1FE704774070008000000203C
:10067400140000201400002030000020FEE70000D9
:1006840080B400AF1E4BD3F888301D4A43F4700386
:10069400C2F888301B4A136843F00103136000BF9B
:1006A400184B1B68C3F34003DBB2012BF8D1154A86
:1006B40053686FF30103536000BF124B5B68C3F3CD
:1006C4008103DBB2002BF8D10E4B1B680D4A23F0DB
:1006D400867323F4803313600A4B00225A60094B5B
:1006E40000221A63074B4FF41F029A60044B4FF029
:1006F40000629A6000BFBD465DF8047B704700BF8E
:1007040000ED00E00010024070B50D4D0D4C641B6F
:10071400A4100026A64209D10B4D0C4C00F018F889
:10072400641BA4100026A64205D170BD55F8043BF5
:1007340098470136EEE755F8043B98470136F2E74F
:100744006C0700086C0700086C07000870070008B5
:10075400F8B500BFF8BC08BC9E467047F8B500BFAA
:08076400F8BC08BC9E4670477A
:04076C00A9010008D7
:0407700085010008F7
:1007740080000001000200040008000010002000B6
:040784004000000031
:0400000508000639B0
:00000001FF
