:020000040800F2
:100000000080012095060008C5010008D301000802
:10001000D9010008DF010008E50100080000000028
:10002000000000000000000000000000EB010008DC
:10003000F90100080000000007020008150200088E
:10004000DD060008DD060008DD060008DD06000804
:10005000DD060008DD060008DD060008DD060008F4
:10006000DD060008DD060008DD060008DD060008E4
:10007000DD060008DD060008DD060008DD060008D4
:10008000DD060008DD060008DD060008DD060008C4
:10009000DD060008DD060008DD060008DD060008B4
:1000A000DD060008DD060008DD060008DD060008A4
:1000B000DD060008DD060008DD060008DD06000894
:1000C000DD060008DD060008DD060008DD06000884
:1000D000DD060008DD060008DD060008DD06000874
:1000E000DD060008DD060008DD060008DD06000864
:1000F000DD060008DD060008DD060008DD06000854
:10010000DD060008DD060008DD060008DD06000843
:10011000DD060008DD060008DD060008DD06000833
:10012000DD060008DD060008DD060008DD06000823
:10013000DD060008DD060008DD060008DD06000813
:1001400000000000000000000000000000000000AF
:10015000DD060008DD060008DD060008DD060008F3
:10016000DD060008DD060008DD060008DD060008E3
:10017000DD060008DD060008DD060008DD060008D3
:04018000DD06000890
:1001840010B5054C237833B9044B13B10448AFF3CD
:1001940000800123237010BD000000200000000037
:1001A4004808000808B5034B1BB103490348AFF3E3
:1001B400008008BD0000000004000020480800087A
:1001C40080B400AF00BFBD465DF8047B704780B4C7
:1001D40000AFFEE780B400AFFEE780B400AFFEE7F7
:1001E40080B400AFFEE780B400AF00BFBD465DF849
:1001F400047B704780B400AF00BFBD465DF8047B4C
:10020400704780B400AF00BFBD465DF8047B704703
:1002140080B400AF00BFBD465DF8047B70470000AA
:1002240080B582B000AF0121104800F000F93B46D0
:10023400184600F0D6F90123FB7100233B7110230B
:10024400BB714FF6FF733B6004237B713B46194639
:10025400074800F02AF901224FF6FF71044800F024
:10026400F8F900BF0837BD4680BD00BF050018007F
:100274000014014080B500AF1021274800F0CBF9ED
:10028400642000F06FFA1021234800F0D3F92021F4
:10029400214800F0C0F9642000F064FA10211E48DF
:1002A40000F0B9F9642000F05DFA10211A4800F05A
:1002B400C1F92021184800F0BDF94021164800F08A
:1002C400AAF9642000F04EFA1021134800F0A3F9B3
:1002D400642000F047FA10210F4800F0ABF9202108
:1002E4000D4800F098F9642000F03CFA10210A4807
:1002F40000F091F9642000F035FA1021064800F06E
:1003040099F92021044800F095F94021024800F0B1
:1003140091F900BF80BD00BF0014014080B500AF5B
:100324008021254800F077F9642000F01BFAFFF7DC
:10033400A1FF8021204800F07DF94FF480711E4810
:1003440000F069F9642000F00DFAFFF793FF4FF411
:100354008071194800F06EF94FF40071164800F0EE
:100364005AF9642000F0FEF9FFF784FF4FF400719E
:10037400114800F05FF94FF480610F4800F04BF929
:10038400642000F0EFF9FFF775FF4FF480610A482D
:1003940000F050F94FF40061074800F03CF9642084
:1003A40000F0E0F9FFF766FF4FF40061024800F047
:1003B40041F900BF80BD00BF0014014080B500AF0B
:1003C400FFF72EFF0821164800F025F901211448F3
:1003D40000F021F9FFF7A2FF0121114800F02AF9EA
:1003E40002210F4800F017F9FFF798FF01210C488C
:1003F40000F011F9FFF792FF0121094800F01AF902
:100404000221074800F016F90421054800F003F919
:10041400FFF784FF0421024800F00CF900BF80BDFF
:100424000014014080B500AFFFF7C8FFFEE780B4B9
:1004340083B000AF78600B46FB70FB78012B16D1BC
:100444007B681B0C03F1804303F5043319687B6854
:1004540003F01F0301229A407B681B0C03F18043C5
:1004640003F50433184641EA0203036017E07B688E
:100474001B0C03F1804303F5043319687B6803F014
:100484001F03012202FA03F3DA437B681B0C03F116
:10049400804303F50433184601EA0203036000BFF6
:1004A4000C37BD465DF8047B704780B485B000AF5F
:1004B400786039603B681B683B813B689B79032B00
:1004C40002D100237B8130E03B689B79002B15D15E
:1004D4003B685B799BB203F00F037B813B685B79DC
:1004E400182B03D13A897B681A611EE03B685B795B
:1004F400282B1AD13A897B685A6116E03B689B79AC
:100504001BB203F008031AB23B681B791BB203F059
:1005140004031BB213431AB23B68DB791BB203F02A
:1005240003031BB213431BB27B813B89DBB2002B59
:1005340025D00023FB601FE03A89FB6842FA03F3ED
:1005440003F00103002B14D07B681B68FA68920047
:100554000F2101FA02F2D2431A407B681A607B68C9
:100564001B687989FA68920001FA02F21A437B68DF
:100574001A60FB680133FB60FB68072BDCD93B89FD
:10058400FF2B28D93B891B0A3B810023FB601FE01A
:100594003A89FB6842FA03F303F00103002B14D0F9
:1005A4007B685B68FA6892000F2101FA02F2D24379
:1005B4001A407B685A607B685B687989FA689200A4
:1005C40001FA02F21A437B685A60FB680133FB604C
:1005D400FB68072BDCD900BF1437BD465DF8047BEC
:1005E400704780B483B000AF78607B684FF6FF72C9
:1005F4001A607B6800229A717B6800221A717B68FA
:1006040004225A717B680122DA7100BF0C37BD469F
:100614005DF8047B704780B483B000AF78600B460C
:100624007B807A887B681A6100BF0C37BD465DF811
:10063400047B704780B483B000AF78600B467B8046
:100644007A887B685A6100BF0C37BD465DF8047B2D
:10065400704780B483B000AF78600B467B8013464C
:100664007B707B78002B06D07B68DA6B7B881A431F
:100674007B68DA6306E07B68DB6B7A88D2431A40D6
:100684007B68DA6300BF0C37BD465DF8047B7047B6
:10069400002103E00B4B5B58435004310A480B4BD9
:1006A40042189A42F6D30A4A02E0002342F8043B75
:1006B400084B9A42F9D300F011F800F09FF8FFF7C5
:1006C400B1FE704768080008000000200000002008
:1006D4000000002024000020FEE7000080B400AFEA
:1006E4001E4BD3F888301D4A43F47003C2F8883097
:1006F4001B4A136843F00103136000BF184B1B68C7
:10070400C3F34003DBB2012BF8D1154A53686FF3EE
:100714000103536000BF124B5B68C3F38103DBB278
:10072400002BF8D10E4B1B680D4A23F0867323F47B
:10073400803313600A4B00225A60094B00221A636B
:10074400074B4FF41F029A60044B4FF000629A600B
:1007540000BFBD465DF8047B704700BF00ED00E0BC
:100764000010024080B485B000AF0346FB80002334
:10077400FB6035E0FB88322B0AD91E4B1B681E4AEE
:10078400322101FB03F35360FB88323BFB8008E01A
:10079400FB88184A1268184902FB03F34B600023D4
:1007A400FB80154B00229A60134B1B68124A43F0DE
:1007B40001031360104B1B68FB60FB6803F001032B
:1007C400002B04D0FB6803F48033002BF2D00A4BD7
:1007D4001B68094A23F001031360074B00229A6047
:1007E400FB88002BC6D100BF00BF1437BD465DF89F
:1007F400047B70472000002010E000E070B50D4D30
:100804000D4C641BA4100026A64209D10B4D0C4CC0
:1008140000F018F8641BA4100026A64205D170BD90
:1008240055F8043B98470136EEE755F8043B9847E2
:100834000136F2E760080008600800086008000854
:1008440064080008F8B500BFF8BC08BC9E467047B1
:0C085400F8B500BFF8BC08BC9E46704719
:04086000A9010008E2
:040864008501000802
:040000050800069554
:00000001FF
